:020000040800F2
:10000000B84D0020553100081D3100081F3100088F
:1000100021310008233100082531000800000000CC
:10002000000000000000000000000000811A00082D
:100030002731000800000000291A00087912000882
:10004000E1310008E5310008E9310008ED31000830
:10005000F1310008F5310008F9310008FD310008E0
:100060000132000805320008093200080D3200088C
:100070001132000815320008193200081D3200083C
:100080002132000825320008293200082D320008EC
:100090003132000835320008393200083D3200089C
:1000A0004132000829310008453200084932000871
:1000B0004D3200085132000855320008593200080C
:1000C0005D320008613200086532000869320008BC
:1000D0006D3200087132000875320008793200086C
:1000E0007D3200088132000885320008893200081C
:1000F0008D320008913200089532000899320008CC
:100100009D320008A1320008A5320008A93200087B
:10011000AD320008B1320008B5320008B93200082B
:10012000BD320008C1320008C5320008C9320008DB
:10013000CD320008D1320008D5320008D93200088B
:10014000DD320008E1320008E5320008E93200083B
:10015000ED320008F1320008F5320008F9320008EB
:10016000FD32000801330008053300080933000898
:100170000D3300081133000815330008000000009B
:10018000193300081D330008213300082533000807
:10019000293300082D3300083133000835330008B7
:1001A000393300083D330008413300082DE9F84792
:1001B00085B006000F00904699460F9C109D002CBC
:1001C00007D1502080F31188BFF34F8FBFF36F8F9B
:1001D000FEE7002D07D1502080F31188BFF34F8F29
:1001E000BFF36F8FFEE75C20009000985C2807D07B
:1001F000502080F31188BFF34F8FBFF36F8FFEE75E
:100200000098002D19D0002C17D0AA46CAF830400B
:1002100002208AF8590000200390CDF808A004A815
:1002200001900E9800904B4642463900300000F095
:1002300043F8504600F0B3F801E000200490049821
:1002400006B0BDE8F0872DE9F84384B006000F0042
:1002500090469946404680B2800000F093FD05002C
:10026000002D0BD05C2000F08DFD0400002C01D08F
:10027000256304E0280000F015FE00E00024002CB7
:1002800015D0002084F859000020039002940D98A6
:1002900001900C9800904B46424692B239003000D3
:1002A00000F00AF8200000F07AF8012001E05FF089
:1002B000FF3005B0BDE8F0832DE9F94F81B00C00A7
:1002C00016000C9F0D9DDDF83880B00000905FF0A7
:1002D000A50BD8F830A05A460099504600F08CFE85
:1002E000D8F8300000EB8600B0F1040A5FEADA0AC1
:1002F0005FEACA0A1AF00700002807D0502080F3EE
:100300001188BFF34F8FBFF36F8FFEE7002C15D01E
:1003100000208146B9F1100F0CD214F8090008EB47
:10032000090181F8340014F80900002802D019F1FD
:100330000109EFE7002088F8430002E0002088F878
:100340003400382F01D337200700C8F82C70C8F8C4
:100350004C700020C8F8500018F1040000F08EFE28
:1003600018F1180000F08AFEC8F81080D7F13800A4
:10037000C8F81800C8F824800020C8F854000020ED
:1003800088F85800029A0199504600F0B5FEC8F866
:100390000000002D01D0C5F80080BDE8F78F38B50A
:1003A000040000F039FFDFF89C150868401C086065
:1003B000DFF894552868002806D12C6008680128C9
:1003C0000DD100F0A1FB0AE0DFF8800500680028ED
:1003D00005D1E06A2968C96A884200D32C60DFF839
:1003E00070050168491C016000686064DFF8A405BD
:1003F0000168E26A914201D2E16A0160211DDFF8E1
:100400009825E36A1420434302EB030000F039FE11
:1004100000F01CFFDFF83405006800280DD02868C4
:10042000C06AE16A884208D25FF08050DFF80C169B
:100430000860BFF34F8FBFF36F8F31BD38B5050034
:100440000024002D15D0DFF8D8050068002807D05B
:10045000502080F31188BFF34F8FBFF36F8FFEE7FB
:1004600000F01AF90021280000F03CFC00F01AF915
:100470000400002C08D15FF08050DFF8C015086040
:10048000BFF34F8FBFF36F8F31BDF8B5040000F09D
:10049000C3FE002C03D1DFF8B004056800E025009E
:1004A000281D00F015FEA86A002803D015F11800D9
:1004B00000F00EFEDFF84C66291D300000F0E1FD73
:1004C00095F85800012802D1002085F8580000F066
:1004D000BDFEDFF878743868002805D000F09CFE77
:1004E00000F080FB00F0B2FEDFF85C140868854283
:1004F00024D13868002816D0DFF8240500680028C9
:1005000007D0502080F31188BFF34F8FBFF36F8F58
:10051000FEE75FF08050DFF824150860BFF34F8FCF
:10052000BFF36F8F0AE03068DFF81824126890423A
:1005300002D10020086001E000F0B0F9F1BD10B474
:10054000020000201300002A07D1502181F31188F6
:10055000BFF34F8FBFF36F8FFEE75969DFF8A445F4
:10056000A14209D1996ADFF85047A14204D0996AA3
:10057000002901D10121080010BC704770B50400AA
:100580002500002C07D1502080F31188BFF34F8F36
:10059000BFF36F8FFEE7DFF8B063306885422DD080
:1005A000002D2BD000F038FE2800FFF7C8FF0028F0
:1005B00022D0281D00F08CFDDFF8D8030168EA6A1C
:1005C000914201D2E96A0160291DDFF8CC23EB6A70
:1005D0001420434302EB030000F053FDE86A316846
:1005E000C96A884208D35FF08050DFF8B015086010
:1005F000BFF34F8FBFF36F8F00F028FE70BD10B5B3
:1006000086B0002004900020039005AA03A904A846
:1006100000F088FFDFF8A446049802900398019048
:10062000002000900023059ADFF894160FF2B140E5
:10063000FFF7BCFD20602068002801D0012400E005
:100640000024012C02D100F085FF0400012C16D1FA
:10065000502080F31188BFF34F8FBFF36F8F5FF08F
:10066000FF30DFF8601608600120DFF8E012086054
:100670000020DFF8B013086000F067FD0AE014F115
:10068000010F07D1502080F31188BFF34F8FBFF3C4
:100690006F8FFEE706B010BDDFF884030168491CC8
:1006A00001607047F8B500250026DFF87443206824
:1006B000002807D1502080F31188BFF34F8FBFF37C
:1006C0006F8FFEE700F0A8FD2068401E20602068C4
:1006D000002856D1DFF86C020068002851D0DFF8FE
:1006E000D8150868002826D0C868C068050015F12C
:1006F000180000F0EDFC281D00F0EAFCDFF8940281
:100700000168EA6A914201D2E96A0160291DDFF8B5
:100710008822EB6A1420434302EB030000F0B1FC93
:10072000E86A89490968C96A8842D8D30120DFF894
:100730009C150860D3E7002D01D000F053FADFF8D4
:1007400088753C68002C0CD000F023F8002803D0FA
:100750000120DFF878150860641E002CF4D1002019
:100760003860DFF86805006800280AD0012006001C
:100770005FF08050DFF8C4120860BFF34F8FBFF303
:100780006F8F00F063FD3000F2BDDFF89802006863
:1007900070472DE9F0410027A148006800286ED17C
:1007A000DFF880020468641C0460002C1CD1DFF8B0
:1007B000281308680068002807D0502080F31188AB
:1007C000BFF34F8FBFF36F8FFEE7D1F80080DFF8E4
:1007D0000C0302680A60C0F80080DFF8F4040168C6
:1007E000491C016000F0FEF9DFF8D884D8F8000059
:1007F000844238D3DFF8E01208680068002804D18A
:100800005FF0FF30C8F800002DE00868C068C068DD
:10081000050068680600B44202D2C8F8006022E011
:10082000281D00F055FCA86A002803D015F1180017
:1008300000F04EFC57480168EA6A914201D2E96A29
:100840000160291D544AEB6A1420434302EB030064
:1008500000F017FCE86A3C490968C96A8842C9D3B4
:1008600001200700C6E7384800684B49C26A1420D7
:1008700042438858022807D30120070004E0DFF82C
:1008800048040168491C0160DFF840040068002842
:1008900001D0012007003800BDE8F08110B46048A5
:1008A0000068002804D00120DFF8201408602CE044
:1008B0000020DFF818140860364A10681423364CFC
:1008C00003FB00F1615800290BD1002807D150210A
:1008D00081F31188BFF34F8FBFF36F8FFEE7401E88
:1008E000ECE703FB00F304EB03014B685B684B6030
:1008F0004B6811F10804A34202D14B685B684B605E
:100900004968C968104B1960106010BC704738B551
:1009100004000D00002C07D1502080F31188BFF394
:100920004F8FBFF36F8FFEE7DFF8AC03006810F165
:100930001801200000F0B1FB0121280000F0D2F9DD
:1009400031BD000070490020604900207C49002032
:100950008C49002070B505000E001400002D07D151
:10096000502080F31188BFF34F8FBFF36F8FFEE7E6
:10097000DFF8DC03006810F11801280000F081FBAB
:10098000002C02D05FF0FF3006002100300000F0A4
:10099000A9F970BD784900200C3C002038B505004D
:1009A000E868C468002C07D1502080F31188BFF399
:1009B0004F8FBFF36F8FFEE714F1180000F088FB34
:1009C00017480068002815D1201D00F081FBDFF8D2
:1009D0000C030168E26A914201D2E16A0160211DC3
:1009E000DFF8FC22E36A1420434302EB030000F02B
:1009F00048FB05E014F11801DFF8BC0200F041FBF0
:100A0000DFF8D4020068C06AE16A884205D201209A
:100A10000121DFF8C022116000E0002032BD00009B
:100A20009849002074490020DFF8A4120968016089
:100A3000DFF82413096841607047000004ED00E00E
:100A40002DE9F04104000D00002C07D1502080F367
:100A50001188BFF34F8FBFF36F8FFEE7002D07D1D3
:100A6000502080F31188BFF34F8FBFF36F8FFEE7E5
:100A700000F0D2FBDFF8E00206686768F71B286821
:100A800010F1010F02D15FF000081BE0DFF8400217
:100A900000682168884205D06068864202D35FF012
:100AA00001080FE02868874208D22868C01B286028
:100AB0002000FFF7B9FF5FF0000803E00020286086
:100AC0005FF0010800F0C2FB4046BDE8F081012064
:100AD000DFF8001208607047644900206849002070
:100AE00010B5040000F03BF8DFF8F40100680228BC
:100AF000F8D35FF0805029490860BFF34F8FBFF3F0
:100B00006F8FEFE7E448002070B50024382C09D23D
:100B1000DFF8CC01142101FB04F1084400F09FFA36
:100B2000641CF3E7DFF83452280000F098FADFF88D
:100B30003062300000F093FADFF87C0100F08FFAA9
:100B4000DFF8200200F08BFADFF81C0200F087FAD1
:100B5000DFF818020560DFF81802066070BD38B5CE
:100B6000DFF810522868002817D000F055FBDFF896
:100B7000F401C068C0680400201D00F0A9FADFF885
:100B8000F8010168491E01602868401E286000F0D5
:100B90005DFB200000F004F8E2E731BD04ED00E069
:100BA00010B5040094F85900002806D1206B00F01D
:100BB00079F9200000F076F913E094F85900012843
:100BC00003D1200000F06EF90BE094F859000228E0
:100BD00007D0502080F31188BFF34F8FBFF36F8F82
:100BE000FEE710BDDFF8842110680068002804D1FA
:100BF0005FF0FF30334A106006E01068C068C068DC
:100C0000010048682F4A10607047DFF870010068E3
:100C1000002801D1012007E0DFF838010068002832
:100C200001D1022000E00020704770B504002500CB
:100C30000026002C3ED0DFF8A0000068854207D0D7
:100C4000502080F31188BFF34F8FBFF36F8FFEE703
:100C5000286D002807D1502080F31188BFF34F8FF3
:100C6000BFF36F8FFEE7286D401E2865E86AE96CC8
:100C700088421FD0286D00281CD1281D00F028FABA
:100C8000E86CE862E86AD0F13800A861DFF84C004F
:100C90000168EA6A914201D2E96A0160291DDFF820
:100CA0004020EB6A1420434302EB030000F0E9F913
:100CB00001200600300070BDBC480020944900208F
:100CC000C03100089049002080490020844900205C
:100CD000884900208449002060490020784900208C
:100CE0000C3C00202DE9F04105000C001A48076873
:100CF000DFF85C80D8F80000001D00F0E9F915F17C
:100D0000010F08D1002C06D0D8F80000011D1648AC
:100D100000F0B7F91AE0E8190600D8F800004660BC
:100D2000BE4207D2D8F80000011D1148006800F04B
:100D3000B4F90BE0D8F80000011D0C48006800F081
:100D4000ACF90F4801688E4200D20660BDE8F08120
:100D500060490020984900207449002094480020F0
:100D6000A8480020D0480020E44800206449002022
:100D7000684900206C490020704900207C4900200F
:100D8000904900202DE9F84F04005FF00008FFF7BC
:100D900083FCDFF84892D9F80000002801D100F068
:100DA000BBF8DFF83CA2DAF80000044269D1002C5D
:100DB00015D08C480068041914F0070F0FD014F1F7
:100DC000080014F00704041B14F0070F07D050208C
:100DD00080F31188BFF34F8FBFF36F8FFEE7002CB6
:100DE0004FD0DFF804B2DBF80000A04249D37F48BF
:100DF0000600006805006868A04205D2286800283F
:100E000002D02E002D68F6E7D9F80000854238D0D0
:100E10007448316802681144884629683160006866
:100E200040006968091B884215D205EB04000700E1
:100E300017F00700002807D0502080F31188BFF377
:100E40004F8FBFF36F8FFEE76868001B78606C60A0
:100E5000380000F092F8DBF800106868091ACBF847
:100E600000106348DBF800100268914202D2DBF800
:100E7000001001606968DAF8000001436960002031
:100E80002860FFF70FFC18F00700002807D050205B
:100E900080F31188BFF34F8FBFF36F8FFEE740469B
:100EA000BDE8F28F70B504002600002C33D04D4809
:100EB0000068404206443500494968680A681042A3
:100EC00007D1502080F31188BFF34F8FBFF36F8F8E
:100ED000FEE72868002807D0502080F31188BFF370
:100EE0004F8FBFF36F8FFEE768680A68104212D019
:100EF000286800280FD16A68086882436A60FFF793
:100F0000CBFB39490A68686882180A60280000F03B
:100F100034F8FFF7C7FB70BD70B44FF4705235481A
:100F2000010011F0070F04D0C91DC908C900521AE9
:100F300082180B002D48036000244460D41829480F
:100F40000068241AE408E400244D2C6000202E6878
:100F5000706000202E6830601800261A46602D68E8
:100F600005604568224E356045681F4E35605FF06C
:100F700000451B4E356070BC704730B41B4A116889
:100F8000814201D21268FAE714005168214481427B
:100F900004D153684168CB185360100003004168C6
:100FA00019441568A94210D10C4914680D68AC4267
:100FB00008D04468116849680C19446011680968D0
:100FC000016004E00968016001E01168016082428B
:100FD00000D0106030BC7047000000002C49002099
:100FE00038490020D831000830490020204900202D
:100FF000344900200C00002062F30F2262F31F42EC
:10100000401810F0030308D0C91A1FD3DB0748BFEC
:1010100000F8012D28BF20F8022D130030B414462B
:101020001546103928BF20E93C00FAD8490728BFE7
:1010300020E90C0048BF40F8042D890028BF20F8A3
:10104000022D48BF00F8012D30BC7047C91818BFE9
:1010500000F8012DCB0728BF00F8012D704710F1D3
:10106000080141605FF0FF31816010F10801C1604B
:1010700010F1080101610021016070470021016148
:10108000704742684A6093688B60936859609160CA
:10109000086103685B1C0360704710B40B6813F1B0
:1010A000010F01D1026907E010F1080254682468B9
:1010B000A34201D35268F9E754684C604C68A160C0
:1010C0008A60516008610468641C046010BC704749
:1010D000010008698A684B689A604A688B685A60A0
:1010E00042688A4201D18A68426000220A6102682D
:1010F000521E026000687047001F5FF0807303603B
:10110000001F4B085B000360001F0FF21503036014
:1011100014380260001F7FF002030360203870471C
:101120007348006810F1010F07D0502080F3118838
:10113000BFF34F8FBFF36F8FFEE7502080F311880E
:10114000BFF34F8FBFF36F8FFEE7E0B569480168CB
:10115000694A914207D1502080F31188BFF34F8F25
:10116000BFF36F8FFEE700686449884207D15020C3
:1011700080F31188BFF34F8FBFF36F8FFEE7604896
:1011800001780191FF21017001788DF800109DF820
:10119000001011F050015B4A11705B4907220A6090
:1011A0009DF80020120608D50A68521E0A609DF8B4
:1011B000002052008DF80020F2E70A68D2F1070201
:1011C000042A07D0502181F31188BFF34F8FBFF35A
:1011D0006F8FFEE70A6812020A600A6812F4E06282
:1011E0000A60019901704948016851F47001016079
:1011F000016851F07041016000F092F800203C4914
:10120000086000F05BFC4248016851F04041016019
:1012100000F044FC00200EBD502080F31188BFF385
:101220004F8FBFF36F8F32490A68521C0A600968FA
:1012300001290AD137490968090606D080F31188C7
:10124000BFF34F8FBFF36F8FFEE7704728490868E1
:10125000002807D1502080F31188BFF34F8FBFF3D0
:101260006F8FFEE70868401E08600868002802D1FA
:10127000002080F31188704780B5502080F31188DA
:10128000BFF34F8FBFF36F8FFFF783FA002803D0B0
:101290005FF080501F490860002080F3118801BD75
:1012A000EFF30580102811D31B4A1268125C11005D
:1012B0000A00144B1B78D2B29A4207D2502282F312
:1012C0001188BFF34F8FBFF36F8FFEE70E4A12688E
:1012D000124B1B6813F4E0639A4207D2502282F348
:1012E0001188BFF34F8FBFF36F8FFEE77047000089
:1012F0000000002000ED00E071C20F4170C20F41FC
:1013000000E400E0B04900205849002020ED00E052
:1013100034EF00E004ED00E0DC3100080CED00E00B
:101320000848002101600021074A11600749096847
:101330004FF47A72B1FBF2F1491E054A11600721A0
:101340000160704710E000E018E000E004000020B9
:1013500014E000E07047EFF3058000280CD1EFF3B4
:101360001080002803D1EFF31180002807D0DFF8A8
:10137000AC010068022802D17FF005000AE0DFF826
:101380009C110868002803D101200860002001E0BA
:101390005FF0FF30704710B5EFF3058000280CD1E7
:1013A000EFF31080002803D1EFF31180002807D05D
:1013B000DFF868010068022802D17FF005000EE026
:1013C000DFF858412068012807D1FFF7C3FF02204A
:1013D0002060FFF714F9002001E05FF0FF3010BD3E
:1013E0002DE9FF4707008846140000200390EFF323
:1013F000058000286FD1EFF31080002803D1EFF3B0
:101400001180002804D0DFF814010068022862D09F
:10141000380000285FD08020824618200500002078
:1014200081465FF0FF300600002C33D02068002892
:1014300001D020688146A069002801D0A06905007C
:10144000002D04D0392D02D22079C00701D500200B
:1014500042E06069002802D0606980088246A06886
:1014600000280BD0E0685C2808D32069002805D04C
:101470006069002802D0012006000DE0A068002865
:101480000AD1E068002807D12069002804D1002093
:10149000060001E000200600012E0CD1A068029099
:1014A0002069019000954346524649463800FEF7B0
:1014B0007DFE03900FE0002E0DD103A80190009552
:1014C0004346524692B249463800FEF7BCFE012818
:1014D00001D000200390039804B0BDE8F08738B530
:1014E0000400EFF3058000280CD1EFF310800028F2
:1014F00003D1EFF31180002807D0DFF82400006843
:10150000022802D17FF0050505E00025002C02D05D
:101510002000FEF793FF280032BD0000284900207C
:1015200028490020074B0360074B0B6080231360A2
:101530007047064B0360064B0B604FF480731360DB
:10154000704700000C4700206C44002068470020D2
:101550006C40002038B586B0002400F027FADFF890
:101560009804006800281ED00020049000200390FA
:1015700005AA03A904A8FFF7DCFFDFF8805404984C
:10158000029003980190022000900023059ADFF852
:1015900070140FF21D10FEF709FE2860286800285D
:1015A00001D001200400002C07D1502080F31188C5
:1015B000BFF34F8FBFF36F8FFEE7200007B030BD42
:1015C0002DE9FF4704000D0016001F00DDF83080F4
:1015D0005FF00009002C07D1502080F31188BFF381
:1015E0004F8FBFF36F8FFEE7DFF80CA4DAF800002F
:1015F000002822D0009501960294062D15DAFFF7F7
:1016000004FB022808D1002342466946DAF80000AC
:1016100000F028FB814610E0002300226946DAF83A
:10162000000000F01FFB814607E000233A006946F6
:10163000DAF8000000F0E9FB8146484604B0BDE856
:10164000F087F8B505000E00DFF8B8030068C06841
:10165000C768381DFFF73CFD97F8280040071CD5E8
:101660002B003200B9694919380000F090F80028C1
:1016700019D00020009000232A0000213800FFF735
:101680009FFF0400002C07D1502080F31188BFF386
:101690004F8FBFF36F8FFEE705E097F8280010F03B
:1016A000FE0087F828003800396A8847F1BD00003D
:1016B00038B50400684600F042F80500009928009B
:1016C00000F003F800F08CF8F4E77CB505000C009E
:1016D000FEF7E2FF684600F046F806000098002892
:1016E0002AD1002C08D1AE4206D3FEF7DBFF310031
:1016F0002800FFF7A6FF21E0002C08D0DFF8080340
:1017000000680068002801D1012400E000242200C4
:10171000A91BDFF8E402006800F070FDFEF7C2FFCD
:1017200000280BD15FF08050DFF8E0120860BFF3B3
:101730004F8FBFF36F8F01E0FEF7B4FF73BD010061
:10174000DFF8C02210680068002801D1012000E005
:10175000002008600868002803D11068C06800688D
:1017600000E00020704770B50400FFF70EF8050098
:10177000DFF89C623068854204D200F0D0F8012086
:10178000206001E0002020603560280070BD2DE958
:10179000F04104000D0016001F005FF000086560B6
:1017A0002461AE420DD3F01BA169884202D301200F
:1017B000804612E0211DDFF850020068FFF76DFC43
:1017C0000BE0BE4204D2BD4202D30120804604E0B9
:1017D000211D8C480068FFF760FC4046BDE8F081A1
:1017E000F8B586B0002201A98348006800F07DFBAF
:1017F000002800F09280019800280ED502AD002D3F
:1018000007D1502080F31188BFF34F8FBFF36F8F44
:10181000FEE7A96868682A68904701980028E1D423
:10182000039806007069002802D0301DFFF750FCB5
:1018300005A8FFF798FF0700019800280ED002289E
:101840000CD00BD304283DD035D3062806D054D372
:10185000082830D002D3092834D05DE096F828005B
:1018600050F0010086F82800029B3A000299B06906
:1018700041183000FFF78BFF00281BD03000316A81
:10188000884796F82800400714D5002000900023D0
:10189000029AB069821800213000FFF791FE04001F
:1018A000002C07D1502080F31188BFF34F8FBFF376
:1018B0006F8FFEE796E796F8280010F0FE0086F896
:1018C00028008FE796F8280050F0010086F82800DD
:1018D0000298B061B069002807D1502080F31188C8
:1018E000BFF34F8FBFF36F8FFEE73B003A00B16944
:1018F000C9193000FFF74BFF74E796F828008007FE
:1019000003D43000FFF7CEFA05E096F8280010F077
:10191000FE0086F8280065E764E707B0F0BD2DE912
:10192000FC41DFF8E080D8F800000068002834D0DF
:10193000D8F80000C06800680500D8F80000C0684A
:10194000C0680700381DFFF7C3FB3800396A8847B5
:1019500097F828004007E4D5B86940190600B54259
:1019600007D27E603F61391DD8F80000FFF795FB74
:10197000D7E70020009000232A0000213800FFF75D
:101980001FFE0400002C07D1502080F31188BFF304
:101990004F8FBFF36F8FFEE7C3E7D8F800001A49F7
:1019A0000A68C8F800200860BDE8F3817CB5FFF73D
:1019B00033FC114C206800281BD1164D2800FFF77E
:1019C0004EFB154E3000FFF74AFB0E4805600E48EF
:1019D000066000200090114B114A10210A2000F0EF
:1019E000C5F820602068002803D00E49206800F068
:1019F000F0FBFFF72BFC73BDA4490020A849002091
:101A0000C83100089C490020A049002004ED00E0F6
:101A1000AC490020F84800200C490020C4470020B1
:101A20006C460020D0310008EFF30980BFF36F8FC0
:101A3000264B1A681EF0100F08BF20ED108A20E90F
:101A4000F04F106009B44FF0500080F31188BFF3DD
:101A50004F8FBFF36F8FFEF721FF4FF0000080F331
:101A6000118809BC19680868B0E8F04F1EF0100F23
:101A700008BFB0EC108A80F30988BFF36F8F7047FE
:101A8000124B19680868B0E8F04F80F30988BFF37B
:101A90006F8F4FF0000080F3118870470C4800688A
:101AA000006880F308884FF0000080F3148862B665
:101AB00061B6BFF34F8FBFF36F8F00DFDFF8140005
:101AC000016841F470010160704700006049002026
:101AD00008ED00E088ED00E070B506000C00350070
:101AE000002D07D1502080F31188BFF34F8FBFF333
:101AF0006F8FFEE7FFF790FB2968EA6B286C424383
:101B000001EB0200A8600020A863286868602968CB
:101B1000EA6B521E286C424301EB0200E8605FF062
:101B2000FF3085F8440085F84500002C12D1286963
:101B3000002817D015F11000FEF730FF002811D053
:101B40005FF08050DFF80C150860BFF34F8FBFF3D4
:101B50006F8F07E015F11000FFF781FA15F12400EF
:101B6000FFF77DFAFFF772FB012070BD2DE9F84306
:101B700006000C0015001F00DDF82090002E07D194
:101B8000502080F31188BFF34F8FBFF36F8FFEE7B4
:101B9000002F07D1502080F31188BFF34F8FBFF380
:101BA0006F8FFEE7002D01D0002C01D0012000E056
:101BB0000020C0B2002807D1502080F31188BFF365
:101BC0004F8FBFF36F8FFEE7002D01D1002C01D1A5
:101BD000012000E00020C0B2002807D1502080F38F
:101BE0001188BFF34F8FBFF36F8FFEE75020009037
:101BF0000098502807D0502080F31188BFF34F8FF2
:101C0000BFF36F8FFEE70098B846B8F1000F0BD016
:101C1000012088F84600CDF800804B46DBB22A0050
:101C20002100300000F003F84046BDE8F2832DE9C2
:101C3000F04105000C0016001F00DDF81880002C94
:101C400002D1C8F8008001E0C8F80060C8F83C5034
:101C5000C8F8404001214046FFF73EFF88F84C702D
:101C6000BDE8F0812DE9F74380460D009946002438
:101C70004646002E07D1502080F31188BFF34F8FC6
:101C8000BFF36F8FFEE7002D02D1306C002801D129
:101C9000012000E00020C0B2002807D1502080F3CE
:101CA0001188BFF34F8FBFF36F8FFEE7B9F1020FBB
:101CB00002D1F06B012801D1012000E00020C0B268
:101CC000002807D1502080F31188BFF34F8FBFF356
:101CD0006F8FFEE7FEF799FF002802D102980028D7
:101CE00001D1012000E00020C0B2002807D150201F
:101CF00080F31188BFF34F8FBFF36F8FFEE7FFF7BD
:101D00008BFAB06BF16B884202D3B9F1020F27D185
:101D10004A462900300000F09FF90700706A002849
:101D20000FD016F12400FEF739FE002814D05FF022
:101D30008050DFF820130860BFF34F8FBFF36F8F21
:101D40000AE0002F08D05FF08050DFF80813086029
:101D5000BFF34F8FBFF36F8FFFF778FA012052E088
:101D60000298002803D1FFF771FA00204BE0002C05
:101D700004D16846FEF758FE01200400FFF766FA1A
:101D8000FEF78AFCFFF748FA96F9440010F1010FBC
:101D900002D1002086F8440096F9450010F1010FA9
:101DA00002D1002086F84500FFF750FA02A96846E4
:101DB000FEF746FE002820D1300000F0FBF9002895
:101DC00015D0029916F11000FEF7A1FD300000F0C9
:101DD000ACF9FEF767FC002891D15FF08050DFF886
:101DE00074120860BFF34F8FBFF36F8F87E7300027
:101DF00000F09BF9FEF756FC81E7300000F095F902
:101E0000FEF750FC0020BDE8FE832DE9F0470700F7
:101E10000C00150098463E00002E07D1502080F39C
:101E20001188BFF34F8FBFF36F8FFEE7002C02D1F5
:101E3000306C002801D1012000E00020C0B2002851
:101E400007D1502080F31188BFF34F8FBFF36F8FFE
:101E5000FEE7B8F1020F02D1F06B012801D1012099
:101E600000E00020C0B2002807D1502080F3118884
:101E7000BFF34F8FBFF36F8FFEE7FFF711FAEFF35A
:101E80001189502080F31188BFF34F8FBFF36F8FFC
:101E9000B06BF16B884202D3B8F1020F20D196F9F2
:101EA00045A042462100300000F0D6F850465FF0D1
:101EB000FF3140B288420DD1706A00280ED016F171
:101EC0002400FEF76BFD002808D0002D06D001206D
:101ED000286003E01AF1010086F84500012000E0C7
:101EE000002089F31188BDE8F0872DE9F64182B022
:101EF00080460E0000244746002F07D1502080F373
:101F00001188BFF34F8FBFF36F8FFEE7002E02D112
:101F1000386C002801D1012000E00020C0B2002868
:101F200007D1502080F31188BFF34F8FBFF36F8F1D
:101F3000FEE7FEF76AFE002802D10398002801D1CF
:101F4000012000E00020C0B2002807D1502080F31B
:101F50001188BFF34F8FBFF36F8FFEE7FFF75CF978
:101F6000BD6B002D1BD03100380000F0C3F8681E97
:101F7000B863386900280ED017F11000FEF70EFD87
:101F8000002808D05FF08050DFF8C8100860BFF369
:101F90004F8FBFF36F8FFFF759F9012057E0039878
:101FA000002803D1FFF752F9002050E0002C04D1A3
:101FB0006846FEF739FD01200400FFF747F9FEF7F8
:101FC0006BFBFFF729F997F9440010F1010F02D1DB
:101FD000002087F8440097F9450010F1010F02D165
:101FE000002087F84500FFF731F903A96846FEF79E
:101FF00027FD002820D1380000F0CEF8002815D0A9
:10200000039917F12400FEF782FC380000F08DF8E8
:10201000FEF748FB0028A1D15FF08050DFF83410B4
:102020000860BFF34F8FBFF36F8F97E7380000F062
:102030007CF8FEF737FB91E7380000F076F8FEF702
:1020400031FB380000F0A8F8002887D0002004B049
:10205000BDE8F08104ED00E02DE9F84F06000F0027
:1020600014005FF00008B56B306C002809D13068AF
:1020700000283AD1B068FEF7D8FD80460020B06055
:1020800033E0002C14D1D6F84090BA46D6F804B00C
:102090004A465146584600F0D7F87068316C0844FB
:1020A00070607068B16888421FD3306870601CE04F
:1020B000D6F84090BA46D6F80CB04A465146584633
:1020C00000F0C2F8F068316C49420844F060F068F2
:1020D0003168884204D2B068316C49420844F060EB
:1020E000022C02D1002D00D06D1E681CB06340464A
:1020F000BDE8F28F2DE9F04104000D00206C0028AE
:1021000011D0E068216C0844E060E068A168884272
:1021100001D32068E060266CE768A84632003900E9
:10212000404600F091F8BDE8F081F8B50400FFF7F3
:1021300073F894F94550280040B201280CDB606A1E
:10214000002809D014F12400FEF728FC002801D053
:10215000FEF7BDFC6D1EEEE75FF0FF3684F84560CC
:10216000FFF774F8FFF758F894F94470380040B25C
:1021700001280CDB2069002809D014F11000FEF7BB
:102180000DFC002801D0FEF7A2FC7F1EEEE784F8CC
:102190004460FFF75BF8F1BD38B50400FFF73CF889
:1021A000A06B002801D1012500E00025FFF74EF8C3
:1021B000280032BD38B50400FFF72EF8A06BE16BA4
:1021C000884201D1012500E00025FFF73FF82800F3
:1021D00032BD10B40023082B0CD2074C54F8332026
:1021E000002A05D144F8331004EBC302506001E02B
:1021F0005B1CF0E710BC704714480020F8B50400E1
:102200000D0016002700FFF707F897F9440010F1BA
:10221000010F02D1002087F8440097F9450010F122
:10222000010F02D1002087F84500FFF70FF8B86BC7
:10223000002805D13200290017F12400FEF78AFB9F
:102240003800FFF772FFF1BD62B38B0708D0521E52
:1022500011F8013B00F8013B00F024808B07F6D118
:10226000830740F0208000BF103A07D330B4B1E8B4
:102270003810103AA0E83810F9D230BC530724BF08
:10228000B1E80810A0E8081044BF51F8043B40F83A
:10229000043BD20724BF31F8022B20F8022B44BFA5
:1022A0000B7803707047121F17D35B0009D151F8E8
:1022B000043B20F8023B1B0C121F20F8023BF6D215
:1022C0000BE051F8043B00F8013B1B0A20F8023BED
:1022D0001B0C121F00F8013BF3D238BF121D521E17
:1022E00024BF11F8013B00F8013BF8D8704730B427
:1022F000002513E050F8042BD30744BFA9F10103D4
:102300009A18091F042942F8045BFAD213468C0775
:1023100044BF15809B1CC90748BF1D7050F8041BA3
:102320000029E7D130BC7047DFF89404016851F010
:10233000010101607047DFF888040068400810F070
:1023400001007047DFF878140A6832F0F80252EAA8
:10235000C0020A607047DFF86C140A6892089200A5
:1023600002430A607047DFF85C04006810F00C005C
:102370007047DFF850140A6832F0F00202430A6036
:102380007047DFF840140A6832F4E05202430A60F2
:102390007047DFF830140A6832F4604202430A6082
:1023A0007047DFF824140A6832F0807202430A6032
:1023B000704781B0DFF814140A6802430A600968A4
:1023C00001400091009901B07047DFF804140A68D9
:1023D0001209120102430A607047DFF8F403006833
:1023E00010F00F007047DFF8EC03016831F4803122
:1023F00001607047DFF8DC130A6832F440420243A0
:102400000A60704700690840884201D1012000E05D
:102410000020C0B27047816170470A048261704732
:1024200010B5DFF8B4434FF400512000FFF7F5FF7B
:102430004FF480412000FFF7F0FFDFF8A0030068B1
:10244000FEF723F8DFF898030068FEF71EF8DFF8C0
:1024500094030068FEF719F8DFF88C030068FEF7B4
:1024600014F8DFF888030068FEF70FF8DFF8800340
:102470000068FEF70AF810BD82B0002101910199B1
:10248000B1F57A5F0CDA002100910099814203DAFC
:102490000099491C0091F8E70199491C0191EEE768
:1024A00002B0704780B500F0D3F900F041F800F0B9
:1024B00074F8FEF750FFCF4A00210FF24110FEF7EB
:1024C0008FFFCD490860CD4A00210FF2E510FEF7DD
:1024D00087FFC2490860CA4A00210FF20120FEF7B7
:1024E0007FFFBF490860C74A00210FF21D20FEF799
:1024F00077FFBC490860C44A00210FF23520FEF77F
:102500006FFFB9490860C14A00210FF24D20FEF764
:1025100067FFB6490860BE4A00210FF26920FEF746
:102520005FFFB3490860FFF77BFFFEF734FFFEE76C
:1025300080B50020FFF749FFFFF74FFF0028FBD1D0
:102540004FF48040FFF756FFFFF74DFF1020FFF7D5
:10255000F9FEFFF7E9FEFFF7EEFE0128FBD10020B0
:10256000FFF707FF0020FFF70CFF0020FFF711FF28
:102570000020FFF7F0FEFFF7F6FE0028FBD1A5488C
:1025800000F080F9002000F083F9002801D000F06D
:1025900047F90020FFF705FF01BD10B586B01822EE
:1025A0000021684600F0C0F90120FFF702FF40203B
:1025B000FFF7FFFE0220FFF7FCFE874C4FF4C041FF
:1025C0002000FFF72AFF012000900020019000204A
:1025D00004906946904800F031FA4FF4C0400090F2
:1025E0000120019000200290002003900020049020
:1025F0006946200000F022FA06B010BD70B5040054
:102600000025FFF70DFF844E01213000FFF7FAFE91
:10261000002848D06420FEF762FF01213000FFF758
:10262000F1FE00283FD06D1C052D00DB6D1FFFF76C
:10263000F7FE002D06D0022D12D006D3042D25D092
:1026400019D32EE0FFF7ECFE2DE0FFF7E9FE63481B
:102650000068FDF793FF62480068FDF78FFF22E0F6
:10266000FFF7DEFE5F480068FDF788FF5E48006800
:10267000FDF784FF17E0FFF7D3FE58480068FDF729
:102680007DFF5A480068FDF779FF0CE0FFF7C8FEB0
:1026900054480068FDF772FF55480068FDF76EFF6B
:1026A00001E0FFF7BDFE0120FEF719FFABE70000D8
:1026B00038B50400484D4FF400512800FFF7ADFE37
:1026C0004FF4FA70FEF70BFF4FF400512800FFF7AC
:1026D000A2FE4FF4FA70FEF702FFEBE738B50400F4
:1026E0003D4D4FF480412800FFF797FE4FF47A707C
:1026F000FEF7F5FE4FF480412800FFF78CFE4FF403
:102700007A70FEF7ECFEEBE738B50400324D4FF47B
:1027100000512800FFF781FE3220FFF7ADFE4FF495
:1027200000512800FFF777FE3220FFF7A5FEEDE706
:1027300038B50400284D4FF480412800FFF76DFEA6
:102740006420FFF799FE4FF480412800FFF763FEF5
:102750006420FFF791FEEDE738B504001E4D4FF4FD
:1027600080412800FFF759FE4FF47A70FEF7B7FE5C
:102770004FF480412800FFF74EFE4FF47A70FEF7C9
:10278000AEFEEBE738B50400134D4FF4804128004E
:10279000FFF743FE6420FFF76FFE4FF480412800EF
:1027A000FFF739FE6420FFF767FEEDE710B5040080
:1027B00020681A49884201D100F088F910BD000054
:1027C00000380240083802408C380240303802405D
:1027D000003C0240007000400018024040490020C8
:1027E00044490020484900204C490020504900201D
:1027F00054490020902F00083C490020B42F0008C5
:10280000D82F0008FC2F00082030000844300008B2
:10281000683000080024F40000000240000001407D
:10282000704730B40EE00268436802440830DC07A9
:1028300044BFA9F10104E31852F8045B43F8045BB8
:10284000091FF9D150F8041B0029ECD130BC7047A6
:1028500080B50B48016851F400710160016851F4C2
:1028600080610160016851F480710160032000F013
:1028700095F9002000F00CF800F0BCF9002002BD32
:10288000003C02400149086070470000040000203D
:102890002DE9F04387B00400002500260022210026
:1028A000192000F081F9192000F093F90020009020
:1028B0001948016851F001010160006810F0010041
:1028C0000090009801A902A800F0C2F900F0B5F943
:1028D00007001248B7FBF0F8B8F10108DFF84090A4
:1028E0001048C9F8000040F2E730C9F80C00C9F8F8
:1028F00004800020C9F810000020C9F808004846EC
:1029000000F0C8F9002803D1484600F0DFF900E0E4
:10291000012007B0BDE8F0834438024040420F0078
:10292000544800200000014010B5044610460A46F5
:1029300001462046FEF760FB204610BD30B4046817
:1029400091FAA1F3B3FA83F30325DBB25B009D4058
:10295000AC4391FAA1F3B3FA83F3DBB25B0012FA52
:1029600003F31C43046030BC704710B444688C43CC
:1029700002FB01F31C43446010BC704730B4846810
:1029800091FAA1F3B3FA83F30325DBB25B009D4018
:10299000AC4391FAA1F3B3FA83F3DBB25B0012FA12
:1029A00003F31C43846030BC704730B4C46891FAB0
:1029B000A1F3B3FA83F30325DBB25B009D40AC4384
:1029C00091FAA1F3B3FA83F3DBB25B0012FA03F3DB
:1029D0001C43C46030BC704730B4046A91FAA1F360
:1029E000B3FA83F30F25DBB29B009D40AC4391FA11
:1029F000A1F3B3FA83F3DBB29B0012FA03F31C4397
:102A0000046230BC704730B4446A0B001B0A93FA6E
:102A1000A3F3B3FA83F30F25DBB29B009D40AC43D5
:102A20000B001B0A93FAA3F3B3FA83F3DBB29B0008
:102A300012FA03F31C43446230BC7047F8B505003A
:102A40000E0000200024316891FAA1F1B1FA81F75B
:102A50003068F840002836D030680121B94008407D
:102A60000400002C2DD07068012802D07068022864
:102A700009D1B26821002800FFF780FFF268210029
:102A80002800FFF772FF326921002800FFF78DFF51
:102A90007068022810D194FAA4F0B0FA80F00828E7
:102AA00005D2726921002800FFF796FF04E07269E1
:102AB00021002800FFF7A7FF726821002800FFF718
:102AC0003DFF7F1CC4E70020F2BD00000348016801
:102AD000034A127889180160704700BF5C490020E2
:102AE0000800002010B410F00703DFF8F44022685B
:102AF0004FF6FF010A40DFF8EC1051EA03210A43C8
:102B0000226010BC7047DFF8D8000068C0F30220D4
:102B10007047010049B2002909D4012210F01F01B9
:102B20008A40314903005BB25B0941F823207047BA
:102B300010B4020052B2002A05D40A012B4B040043
:102B400064B21A5508E00A01294B040064B214F07B
:102B50000F04234403F8042C10BC704770B4030026
:102B600013F00704D4F10700052801D3042001E085
:102B7000D4F10700251D072D01D2002500E0E51E38
:102B8000012616FA00F0401E0140A94016FA05F58C
:102B90006D1E2A401143080070BC704710B5040038
:102BA0002000FFF79FFF10BD2DE9F04104000D004C
:102BB00016000027FFF7A7FF804632002900404695
:102BC000FFF7CCFF0100200040B2FFF7B1FFBDE8E6
:102BD000F08110B50400200040B2FFF79AFF10BD4D
:102BE0000CED00E00000FA0500E100E000E400E088
:102BF00018ED00E081B0002000900C48016851F40D
:102C000080410160006810F480400090009800202E
:102C100000900748016851F080510160006810F091
:102C200080500090009801B0704700BF44380240C7
:102C30004038024015480068704780B5FFF7FAFF3A
:102C40001349114A1268C2F34232895CC84002BD7E
:102C50000F2202600C4A136813F0030343601368E9
:102C600013F0F0038360136813F4E053C360126839
:102C7000D20812F4E0520261024A126812F00F0206
:102C80000A607047003C02400838024004000020FF
:102C9000B831000810B50400002C01D1012014E067
:102CA00094F83D00002805D1002084F83C00200065
:102CB00000F052F9022084F83D00211D206800F048
:102CC000D5F8012084F83D00002010BD01000868FF
:102CD000C06850F001000A68D0600868826812F08D
:102CE0000702062A05D00868006850F001000B684A
:102CF00018600020704710B5040020680069800744
:102D00001AD52068C068800716D57FF002002168B8
:102D10000861012020772068806910F0030F03D03C
:102D2000200000F01AF905E0200000F017F920005B
:102D300000F015F9002020772068006940071AD5B7
:102D40002068C068400716D57FF00400216808613C
:102D5000022020772068806910F4407F03D0200093
:102D600000F0FBF805E0200000F0F8F8200000F08B
:102D7000F6F8002020772068006900071AD520683F
:102D8000C068000716D57FF008002168086104209C
:102D900020772068C06910F0030F03D0200000F0F6
:102DA000DCF805E0200000F0D9F8200000F0D7F8AA
:102DB0000020207720680069C0061AD52068C06806
:102DC000C00616D57FF01000216808610820207722
:102DD0002068C06910F4407F03D0200000F0BDF8E7
:102DE00005E0200000F0BAF8200000F0B8F800205C
:102DF000207720680069C0070AD52068C068C0072E
:102E000006D57FF00100216808612000FFF7CEFCA5
:102E10002068006900060AD52068C068000606D54B
:102E20007FF0800021680861200000F099F8206898
:102E3000006940060AD52068C068400606D57FF0C4
:102E4000400021680861200000F08BF820680069CC
:102E500080060AD52068C068800606D57FF020006D
:102E600021680861200000F07DF810BD10B40468EE
:102E7000DFF8B830984212D0B0F1804F0FD0DFF8B1
:102E8000B02090420BD0DFF8AC20904207D0DFF8A2
:102E9000A820904203D0DFF8A420904203D134F060
:102EA00070044A681443984228D0B0F1804F25D06E
:102EB000DFF87C20904221D0DFF8782090421DD0AE
:102EC000DFF87420904219D0DFF87020904215D0BE
:102ED000DFF86C20904211D0DFF8682090420DD0CE
:102EE000DFF86420904209D0DFF86020904205D0DE
:102EF000174A904202D0174A904203D134F44074EA
:102F0000CA68144334F080044A69144304608A6830
:102F1000C2620A688262984202D0084A904201D195
:102F20000A6902630122426110BC7047000001403F
:102F30000004004000080040000C00400004014074
:102F4000004001400044014000480140001800409A
:102F5000001C0040002000407047704770477047D9
:102F6000704770477047000010B507497944183121
:102F7000064C7C44163404E00A68081D1144884756
:102F80000146A142F8D110BD28010000480100000F
:102F90006431000800000000000000000000000094
:102FA00000000000000200001A0000000000000005
:102FB0000000000088310008000000000000000050
:102FC00000000000000000000002000018000000E7
:102FD0000000000000000000903100080000000028
:102FE00000000000000000000000000000020000DF
:102FF00018000000000000000000000098310008E8
:1030000000000000000000000000000000000000C0
:103010000002000018000000000000000000000096
:10302000A0310008000000000000000000000000C7
:103030000000000000020000180000000000000076
:1030400000000000A831000800000000000000009F
:103050000000000000000000000200001900000055
:103060000000000000000000B03100080000000077
:10307000000000000000000000000000000200004E
:103080001900000000000000000000004EF688510A
:10309000CEF20001086840F470000860BFF34F8F63
:1030A000BFF36F8F4FF00070E1EE100A7047000021
:1030B0003FF2FFFFA84900000C00002000000000C4
:1030C00063F7FFFF0C000000B400000000000020C8
:1030D0000000000000F00DF8002801D0FFF744FFC9
:1030E000AFF300800020AFF30080FFF7DBF900F0C2
:1030F00002F80120704700F001B80000074638468A
:1031000000F002F8FBE7000080B5AFF30080024A50
:1031100011001820ABBEFBE7260002007047FEE757
:10312000FEE7FEE7FEE7704780B50248FFF7E3FDE4
:1031300001BD0000544800200448016851F47001AA
:1031400001605FF0006002490860704788ED00E0B0
:1031500008ED00E001488047014800473931000888
:103160007131000864656661756C745461736B003D
:10317000AFF30080FFF78AFFFFF7ACFFAAAAAAAA65
:103180000024F4000100000050524731000000000C
:1031900050524732000000005052473300000000F8
:1031A00050524734000000005052473500000000E4
:1031B00050524736000000000000000001020304E6
:1031C00049444C4500000000546D72205376630062
:1031D000546D72510000000008000000F0E300E0B0
:1031E000FFF7FEBFFFF7FEBFFFF7FEBFFFF7FEBF13
:1031F000FFF7FEBFFFF7FEBFFFF7FEBFFFF7FEBF03
:10320000FFF7FEBFFFF7FEBFFFF7FEBFFFF7FEBFF2
:10321000FFF7FEBFFFF7FEBFFFF7FEBFFFF7FEBFE2
:10322000FFF7FEBFFFF7FEBFFFF7FEBFFFF7FEBFD2
:10323000FFF7FEBFFFF7FEBFFFF7FEBFFFF7FEBFC2
:10324000FFF7FEBFFFF7FEBFFFF7FEBFFFF7FEBFB2
:10325000FFF7FEBFFFF7FEBFFFF7FEBFFFF7FEBFA2
:10326000FFF7FEBFFFF7FEBFFFF7FEBFFFF7FEBF92
:10327000FFF7FEBFFFF7FEBFFFF7FEBFFFF7FEBF82
:10328000FFF7FEBFFFF7FEBFFFF7FEBFFFF7FEBF72
:10329000FFF7FEBFFFF7FEBFFFF7FEBFFFF7FEBF62
:1032A000FFF7FEBFFFF7FEBFFFF7FEBFFFF7FEBF52
:1032B000FFF7FEBFFFF7FEBFFFF7FEBFFFF7FEBF42
:1032C000FFF7FEBFFFF7FEBFFFF7FEBFFFF7FEBF32
:1032D000FFF7FEBFFFF7FEBFFFF7FEBFFFF7FEBF22
:1032E000FFF7FEBFFFF7FEBFFFF7FEBFFFF7FEBF12
:1032F000FFF7FEBFFFF7FEBFFFF7FEBFFFF7FEBF02
:10330000FFF7FEBFFFF7FEBFFFF7FEBFFFF7FEBFF1
:10331000FFF7FEBFFFF7FEBFFFF7FEBFFFF7FEBFE1
:10332000FFF7FEBFFFF7FEBFFFF7FEBFFFF7FEBFD1
:10333000FFF7FEBFFFF7FEBFFFF7FEBFFFF7FEBFC1
:04334000FFF7FEBFD6
:04000005080031714D
:00000001FF
